:020000040800F2
:1000000000500020C5010008C9010008CB0100080C
:10001000E1010008E3010008F90100080000000008
:100020000000000000000000000000000F020008B7
:10003000110200080000000013020008F513000878
:1000400029020008290200082902000829020008E4
:1000500029020008290200082902000829020008D4
:1000600029020008290200082902000829020008C4
:1000700029020008290200082902000829020008B4
:1000800029020008290200082902000829020008A4
:100090002902000829020008290200082902000894
:1000A0002902000829020008290200082902000884
:1000B0002902000829020008F91300082902000893
:1000C0002902000829020008290200082902000864
:1000D00029020008DD120008E9120008F5120008E4
:1000E0002902000829020008290200080000000077
:1000F0000000000000000000000000000000000000
:1001000000000000000000005FF808F107B500F0F3
:10011000B1FD214A214B22498B4226D30021214B9C
:10012000214A934226D300F0B1FD01A9684600F0B0
:1001300099FD00251D4E1E4CA41BA410AC421CDCD6
:1001400000251C4E1C4CA41BA410AC421ADC9DE8DC
:10015000030001F06BFB0646184D194C641BA410FC
:10016000002C14DC304600F07AFD52F8040F43F8FE
:10017000040BD1E743F8041BD3E756F82530984722
:100180000135DBE756F8253098470135DDE7013CBE
:1001900055F824309847E3E788190008000000204C
:1001A00030000020300000206006002054020008CB
:1001B00054020008540200085402000854020008C7
:1001C0005402000814480047FEE71EF0040F0CBF5D
:1001D000EFF30880EFF309807146104A1047FEE7FD
:1001E000FEE71EF0040F0CBFEFF30880EFF3098069
:1001F00071460B4A1047FEE71EF0040F0CBFEFF3E9
:100200000880EFF309807146064A1047FEE7FEE7D3
:10021000FEE7FEE7704700000D010008DF0100085F
:0A022000F70100080D020008FEE7D8
:10022C008C19000800000020300000208C190008F8
:10023C0000000000000000003000002060060020DC
:08024C000000000000000000AA
:1002540010B5C2780378E2B1124AD1684278C94332
:10026400C1F30221C1F10404A2400F24807824FACE
:1002740001F101400A430C491201C818D2B280F8B6
:10028400002303F01F005A090123834041F8223060
:1002940010BD01215A0903F01F0301FA03F32032B0
:1002A4000149F3E700ED00E000E100E008B5144B7C
:1002B40098420BD101214FF4007000F05FFA002145
:1002C4004FF40070BDE8084000F058BA0D4B984256
:1002D40008D101214FF4806000F050FA00214FF45E
:1002E4008060EFE7084B984208D101214FF40040A9
:1002F40000F044FA00214FF40040E3E708BD00BFDA
:100304000024014000280140003C014043680A7970
:1003140023F4702323F4807343EA02230A6810B59C
:10032400134343608A68CB6884681343084A2240B5
:1003340013434A7943EA420383600A7CC36A013A5D
:1003440023F47003D2B243EA0253C36210BD00BF68
:10035400FDF7F1FF836819B143F00103836070472F
:1003640023F00103FAE7836843F0080383607047CE
:100374008068C0F3C0007047836843F0040383605F
:1003840070478068C0F380007047836819B143F4F4
:10039400A0038360704723F4A003FAE7092970B52A
:1003A4001BD90726A1F10A04C56804EB4404A6403E
:1003B40025EA060503FA04F42C43C460062A18D877
:1003C4001F24013A436B02EB8202944023EA0403A4
:1003D40001FA02F21A43426370BD0724056901EB76
:1003E4004106B44025EA040503FA06F42C430461EB
:1003F400E4E70C2A0CD81F24073A036B02EB8202B1
:10040400944023EA040301FA02F21A43026370BD22
:100414001F240D3AC36A02EB8202944023EA0403C8
:1004240091401943C16270BDC06C80B270470368CB
:10043400194214BF01200020704708B5012000F0C4
:10044400B5F9BDE80840002000F0B0B908B5264B66
:10045400984209D10121042000F090F900210420E0
:10046400BDE8084000F08AB9204B984206D101212A
:10047400082000F083F900210820F1E71C4B984282
:1004840006D10121102000F079F900211020E7E7BE
:10049400184B984206D10121202000F06FF9002169
:1004A4002020DDE7144B984206D10121402000F0C2
:1004B40065F900214020D3E7104B984206D1012171
:1004C400802000F05BF900218020C9E70C4B9842A2
:1004D40008D101214FF4807000F050F900214FF44D
:1004E4008070BDE708BD00BF00080140000C01405A
:1004F400001001400014014000180140001C01409C
:1005040000200140012108B5084600F037F9BDE894
:1005140008400021012000F031B9CB782DE9F041E9
:10052400DA0648BF8A780E8803F00F0548BF1543E2
:1005340016F0FF0F1AD000214FF0010E4FF00F0CF0
:1005440002680EFA01F737EA06040BD18C000CFAA4
:1005540004F822EA080205FA04F4282B42EA040209
:1005640025D1476101310829EBD10260FF2E1CD946
:1005740000214FF0010E4FF00F0C426801F1080406
:100584000EFA04F434EA06070BD18F000CFA07F8CC
:1005940022EA080205FA07F7282B42EA07020AD1E1
:1005A400446101310829E9D14260BDE8F081482B5A
:1005B40008BF0761D6E7482B08BF0461F1E74FF68F
:1005C400FF730380022383700423C37070470AB14E
:1005D40001617047416170470028164A30B500F444
:1005E4004015B4BFD3695368B5F5401F84B210D128
:1005F400556823F0706325F07065556019B1420D9C
:100604001201944023430B4A0028B4BFD3615360C2
:1006140030BDC2024DBF0322420D1201C0F3034597
:100624004CBFAA4004FA02F223EA020343F07063C7
:10063400E4E700BF00000140014B1860704700BFB1
:1006440000300040014B5860704700BF003000404C
:10065400014B9860704700BF003000404AF6AA2260
:10066400014B1A60704700BF003000404CF6CC428A
:10067400014B1A60704700BF00300040014B186006
:10068400704700BF20000E42034A536823F44043DE
:1006940018435060704700BF00100240014B1860BF
:1006A400704700BF80044242024A136A1843106232
:1006B400704700BF00100240014B1860704700BF34
:1006C4003C0442421C4A10B5536803F00C03042B4B
:1006D40001D0082B1FD0194B03605368184CC3F387
:1006E4000313E15C0368CB4043605168C1F302210A
:1006F400615C23FA01F181605168C1F3C221615C3C
:10070400CB40C36052680F49C2F381328A5CB3FBA9
:10071400F2F3036110BD53685168C3F38343CC0300
:1007240003F1020302D408494B43D5E75168890316
:10073400F9D40249F8E700BF0010024000127A0021
:10074400040000200000002000093D00044B9A69C9
:1007540011B110439861704722EA0000FAE700BF24
:1007640000100240044BDA6911B11043D86170479C
:1007740022EA0000FAE700BF00100240044BDA68E6
:1007840011B11043D860704722EA0000FAE700BFB5
:1007940000100240044B1A6911B1104318617047EC
:1007A40022EA0000FAE700BF00100240014B186083
:1007B400704700BF400442424209012A074B07D157
:1007C4001B6800F01F0023FA00F000F001007047DE
:1007D400022A0CBF1B6A5B6AF3E700BF00100240E9
:1007E400034A93889BB243F010039380704700BF81
:1007F40000280040034A938823F010031B041B0CB9
:100804009380704700280040034A938B108B9BB25F
:1008140043EA0040704700BF0028004008B5FFF7D6
:10082400DFFF054BC0F3034280B21A819881BDE813
:100834000840FFF7DFBF00BF00280040024A93884A
:100844009B06FCD5704700BF00280040054A9388EA
:1008540023F008031B041B0C938093881B07FCD50F
:10086400704700BF0028004008B5614B98420BD187
:1008740001214FF40060FFF781FF00214FF4006075
:10088400BDE80840FFF77ABFB0F1804F09D10121DC
:100894000846FFF77FFF00210120BDE80840FFF76D
:1008A40079BF544B984206D101210220FFF772FF11
:1008B40000210220F1E7504B984206D10121042087
:1008C400FFF768FF00210420E7E74C4B984206D16C
:1008D40001210820FFF75EFF00210820DDE7484BD7
:1008E400984206D101211020FFF754FF0021102067
:1008F400D3E7444B984206D101212020FFF74AFF59
:1009040000212020C9E7404B984208D101214FF42F
:100914000050FFF733FF00214FF40050B0E73B4B8A
:10092400984208D101214FF40020FFF727FF00214E
:100934004FF40020A4E7364B984208D101214FF42C
:100944008010FFF71BFF00214FF4801098E7314B14
:10095400984208D101214FF40010FFF70FFF002146
:100964004FF400108CE72C4B984206D10121402013
:10097400FFF710FF002140208FE7284B984206D153
:1009840001218020FFF706FF0021802085E7244B0A
:10099400984208D101214FF48070FFF7FBFE00213B
:1009A4004FF4807079E71F4B984208D101214FF42E
:1009B4008030FFF7E3FE00214FF4803060E71A4BEC
:1009C400984208D101214FF40030FFF7D7FE0021EF
:1009D4004FF4003054E7154B984208D101214FF4ED
:1009E4008020FFF7CBFE00214FF4802048E708BDAC
:1009F400002C01400004004000080040000C0040AE
:100A0400001000400014004000340140004C01403C
:100A1400005001400054014000180040001C0040F8
:100A240000200040004001400044014000480140D3
:100A3400224A038890429BB212D002F5006290428F
:100A44000ED0B0F1804F0BD0A2F59832904207D06F
:100A540002F58062904203D002F58062904203D195
:100A64004A8823F070031343154A904208D002F5D4
:100A7400806290421FBF23F44073CA889BB2134321
:100A840003808B8883850B8803850C4B98420FD099
:100A940003F5006398420BD003F54063984207D0F6
:100AA40003F58063984203D003F58063984201D133
:100AB4000B7A038601238382704700BF002C014018
:100AC40000100040038821B19BB243F0010303806E
:100AD400704723F001031B041B0CF8E783899BB2C6
:100AE40012B119438181704723EA0101FAE7FFF744
:100AF400F5BFC94389B201827047000030B50D4685
:100B04000446038A8A899BB2C98823F440530B4361
:100B140003828389A98823F4B05323F00C031B04B4
:100B24001B0C0B43298987B00B4369890B439BB288
:100B34008381838A9BB223F440731343838201A885
:100B4400FFF7C0FD174A039B0499944218BF194646
:100B54001922A3894A4313F4004F2B684FF064050C
:100B640014BF5B009B00B2FBF3F1B1FBF5F3A28968
:100B74001801120405FB13130BD5DA003232B2FB51
:100B8400F5F202F0070242EA00039BB2238107B0A8
:100B940030BD1B013233B3FBF5F303F00F03034302
:100BA400F3E700BF00380140838921B19BB243F4CD
:100BB40000538381704723F400531B041B0CF8E794
:100BC40001F01F0310B5C1F342140121012C01FAF5
:100BD40003F105D10C3003683AB11943016010BD2B
:100BE400022C0CBF10301430F5E723EA0101F5E7BD
:100BF400C1F30801818070478088C0F30800704702
:100C04000388194214BF0120002070470123C1F357
:100C1400421210B5012A01F01F0403FA04F30ED1A5
:100C2400828992B21340028892B26BB10123090AFD
:100C340003FA01F10A4214BF1846002010BD022A2B
:100C44000CBF028A828AECE7184610BD0B0A012108
:100C54009940C94389B20180704708B500F016F87D
:100C640001230360014B0B60704700BF1400002098
:100C740008B500F01DF8024B024A9A6008BD00BF97
:100C840000ED00E00000000800F08AB8BFF34F8FC9
:100C94000549064BCA6802F4E0621343CB60BFF314
:100CA4004F8F00BFFDE700BF00ED00E00400FA0530
:100CB400374B82B01A6842F001021A605968354A0B
:100CC4000A405A601A6822F0847222F480321A6050
:100CD4001A6822F480221A605A6822F4FE025A60CA
:100CE4004FF41F029A600022009201921A6842F4A3
:100CF40080321A601A6802F400320192009A0132BA
:100D04000092019A1AB9009AB2F5A06FF2D11A684A
:100D140012F4003218BF01220192019A012A05D06F
:100D24004FF000621C4B9A6002B070471B4A116876
:100D340041F010011160116821F003011160116884
:100D440041F0020111605A685A605A685A605A6840
:100D540042F480625A605A6822F47C125A605A68DB
:100D640042F4E8125A601A6842F080721A601A68F3
:100D74009201FCD55A6822F003025A605A6842F084
:100D840002025A605A6802F00C02082AFAD1C7E734
:100D9400001002400000FFF800ED00E000200240D7
:100DA400114A124B516801F00C01042901D00829A1
:100DB4000AD00F49196052680E49C2F30312895CC4
:100DC4001A68CA401A60704751685068C1F3834179
:100DD400C00301F1020102D407484143EAE7506825
:100DE4008003F9D40248F8E7001002402C000020E8
:100DF40000127A001C00002000093D0010B54FF4D9
:100E0400004086B0FFF740FC01214FF40070FFF76B
:100E14009DFC1548FFF74AFA012400234FF4602291
:100E240001A9114801938DF808308DF80930039217
:100E340004938DF81440FFF769FA0B482146FFF735
:100E440089FA0948FFF78FFA0748FFF791FA002853
:100E5400FAD10548FFF790FA034C2046FFF791FAC0
:100E64000028FAD106B010BD00240140014608B59F
:100E7400094800230122FFF791FA01210648FFF7F0
:100E840084FA02210448FFF7D2FA0028F9D0024874
:100E9400BDE80840FFF7C8BA0024014013B5044672
:100EA4002248FFF7D3FA2248FFF7D0FA2148FFF788
:100EB400CDFA2148FFF7CAFA01210420FFF746FCC6
:100EC40001210820FFF742FC01211020FFF73EFC1E
:100ED40001212020FFF73AFCFFF714FB8CB9012114
:100EE4000846FFF733FC41F28830002100F006FA8F
:100EF40001211248FFF770FB4FF47A70002100F0D3
:100F0400FDF901A8FFF75BFB01A90848FFF705FB02
:100F140001A90748FFF701FB01A90648FFF7FDFAFD
:100F240001A90548FFF7F9FA02B010BD0008014015
:100F3400000C014000100140001401400004300086
:100F440002392C2924D8DFE801F0808284868823A2
:100F54002323171B1F24282C303460626466682303
:100F6400236A6C6E70383D42474C512323565B72A2
:100F74007476787A237C7E00394B0360012306E083
:100F8400374B0360022302E0354B03600423838064
:100F94007047334B03600823F9E7314B0360102398
:100FA400F5E72F4B03602023F1E72D4B036040232B
:100FB400EDE72B4B03608023E9E7294B03604FF4F3
:100FC4008073E4E7264B03604FF40073DFE7244BA0
:100FD40003604FF48063DAE7214B03604FF400634E
:100FE400D5E71F4B03604FF48053D0E71C4B0360DD
:100FF4004FF40053CBE71A4B03604FF48043C6E72A
:10100400174B03604FF40043C1E7164BB5E7154B8C
:10101400B7E7144BB9E7134BDAE7124BDDE7114B93
:10102400E0E7104BE3E70F4BE6E70E4BE9E70D4B28
:10103400B0E70C4BB2E70B4BB4E70A4BB6E7094BEE
:10104400B8E7084BBAE7074BBDE7074BCFE7064BBA
:10105400D2E7054BD5E7054B8FE7044B91E700BF7B
:1010640000080140000C0140001001400014014040
:101074001FB50A46014602A8FFF762FFBDF80C300F
:1010840001A9ADF80430022302988DF807208DF8E9
:101094000630FFF742FA05B05DF804FB07B50A46CF
:1010A40001466846FFF74CFFBDF80410009803B0F2
:1010B4005DF804EBFFF78BBA38B50D46044645F2EC
:1010C4005550FFF7B9FA2846FFF7BCFA2046FFF758
:1010D400BFFA0020FFF7B0FABDE83840FFF7C6BA00
:1010E400FFF7BCBA40F20223064A03FB00200023A8
:1010F40040F20122A0F80032013A01D04370FBE72C
:10110400704700BF3200002030B5054687B002208A
:10111400FFF7E8FF01214FF48020FFF723FB0121B3
:101124000820FFF713FB01210846FFF70FFB4FF4DC
:101134008063ADF8003003238DF802301823214C6E
:10114400694620468DF80330FFF7E7F94FF4006352
:10115400ADF800300423694620468DF80330FFF7CC
:10116400DCF90C2200230295ADF812200125272278
:10117400A4F5444402A92046ADF80C30ADF80E3075
:10118400ADF81030ADF814308DF805308DF8063018
:101194008DF804208DF80750FFF7B0FC01A8FFF785
:1011A40057F82A46204640F22551FFF709FD294603
:1011B4002046FFF7F9FC40F225512046FFF746FD93
:1011C40007B030BD000C014038B505460C4614F993
:1011D400011B284689B2FFF70BFD80212846FFF743
:1011E4000FFD0028F9D094F90030002BEFD138BD61
:1011F40010B589B20446FFF7FBFC80212046FFF7B7
:10120400FFFC0028F9D010BD38B504460D4615F989
:10121400011B204689B2FFF7EBFC80212046FFF733
:10122400EFFC0028F9D095F90030002BEFD12046CF
:10123400BDE838400A21FFF7DBBF000038B50C4693
:1012440040F22551FFF7E2FC08B300231D4D012CA9
:101254002B7028D01CD3022C2CD040F202231A4924
:1012640003FB0411B1F800329BB2B3F5007F0EDA30
:10127400B1F800329BB25A1C92B2A1F800222A782B
:1012840052B2CA540022B1F800329BB2CA5438BDDB
:101294000E4840F22551FFF7D9FC0C48FFF7ACFC8F
:1012A40040B22870D9E70A4840F22551FFF7CEFC36
:1012B4000748F3E7074840F22551FFF7C7FC054804
:1012C400ECE700BF3806002032000020003801405F
:1012D400004400400048004000210148FFF7AEBF31
:1012E4000038014001210148FFF7A8BF0044004035
:1012F40002210148FFF7A2BF00480040064B30B569
:10130400D3E9004500196941D3E900458D4208BF7E
:101314008442F9D330BD00BF40060020014BC3E92D
:101324000001704740060020014BD3E900017047DB
:101334004006002008B501214FF0C050FFF712FA13
:101344000120FFF79BF9FFF778F80120FFF7A6F9D2
:101354006120FFF731FA0028FAD04FF40070FFF74C
:10136400A3F948F60B60FFF759FA0120FFF7A4F937
:10137400FFF76CFABDE80840FFF760BA30B51B4DC3
:1013840085B0044601210420FFF7ECF92846FFF755
:101394006BFA4FF6FF731E22ADF80430ADF8084027
:1013A4000023012401A92846ADF80630ADF80A301F
:1013B4008DF80C308DF801308DF800208DF8024046
:1013C4008DF80340FFF734FB6846FEF741FF2246E1
:1013D40021462846FFF78BFB21462846FFF772FB80
:1013E40021462846FFF785FB05B030BD00080040C4
:1013F40000BF704708B50A49D1E90023013243F11F
:101404000003C1E9002300F051F900F061F900F094
:1014140071F9BDE8084001210248FFF76ABB00BF2B
:10142400400600200008004008B500210020FFF716
:1014340075FF0120FFF7A2FFFFF77CFF0120FFF7F4
:101444002DFDFFF7DBFC10211F20FFF711FE1021FB
:101454001E20FFF70DFE00211F20FFF71FFE0021B5
:101464001E20FFF71BFE10210220FFF701FE1021B2
:101474001B20FFF7FDFD10211C20FFF7F9FD1021B3
:101484001D20FFF7F5FD10211920FFF7F1FD1021B4
:101494001A20FFF7EDFD00210A20FFF7E9FD0021E6
:1014A4000B20FFF7E5FD00210C20FFF7E1FD0021F3
:1014B4000D20FFF7DDFD00210E20FFF7D9FD0021EF
:1014C4000F20FFF7D5FD00211020FFF7D1FD41F2D9
:1014D40088300021FFF712FF40F6FF700221FFF76A
:1014E400EBFDBDE808404FF49640FFF70DBE08B58C
:1014F40001200021FFF702FFBDE80840FFF7F0BD1F
:101504000220FFF7B3BC0320FFF7B0BC0020FFF7B5
:10151400ADBC0120FFF7AABC0520FFF7A7BC04203F
:10152400FFF7A4BC0620FFF7A1BC01461B20FFF770
:10153400B5BD10B5044601211F20FFF7AFFD3CB136
:10154400012C0BD000211F20FFF7A8FD002100E093
:1015540001211C20FFF7A2FD002104E000211C2032
:10156400FFF79CFD2146BDE810401D20FFF796BD06
:1015740010B5044601211E20FFF790FD3CB1012C5B
:101584000BD000211E20FFF789FD002100E001217E
:101594001920FFF783FD002104E000211920FFF743
:1015A4007DFD2146BDE810401A20FFF777BD0000FD
:1015B40010B5FFF7B9FE0C4CD4E900238B4208BFE9
:1015C40082420FD2094B0220197881F0010119706F
:1015D400FFF764FDFFF7A8FE10F5FA7041F1000172
:1015E400C4E9000110BD00BF4806002050060020D9
:1015F40038B50F4D0F4CFFF707F90A22294600F0C2
:1016040037F90A21284600F03BF820465B21FFF712
:10161400EFFD29462046FFF7D7FD20465D21FFF761
:10162400E7FD2046BDE838402021FFF7E1BD00BFBB
:10163400510600200048004008B5014660B1074843
:10164400FFF7C2FD3A210548FFF7D2FDBDE8084087
:1016540020210248FFF7CCBD08BD00BF0048004070
:1016640038B505460C46FFF7C3FF2846FFF7E4FFED
:101674002146BDE838400148FFF7C6BD0048004098
:1016840070B504460E463025204600F0F3F8B0420B
:1016940020460AD200F0EEF80130204410F8013D53
:1016A400A0424370FAD12570EEE770BD08B5064B31
:1016B4001B783BB1FFF730FFB0F5A67FDEBF0122F8
:1016C400024B1A7008BD00BF5C0600205E060020B5
:1016D40008B5064B1B783BB1FFF721FFB0F5A67F99
:1016E400DEBF0122024B1A7008BD00BF5C06002059
:1016F4005D06002008B5064B1B7843B1FFF712FFC7
:1017040040F6AC539842C2BF0122024B1A7008BD86
:101714005C0600205F06002008B50120FFF709FFE2
:10172400BDE808400020FFF723BF000008B50120F2
:10173400FFF7FBFE0420FFF7FCFE0420FFF718FF71
:101744000122054B054900201A70FFF789FFBDE807
:101754000840FFF7E1BF00BF5C06002058190008ED
:1017640008B5FFF7D0FEB0F57A7F03DDBDE8084089
:10177400FFF7D2BF08BD08B5FFF7CBFEB0F57A7FFF
:1017840003DDBDE80840FFF7C7BF08BD08B500206A
:10179400FFF7CFFEBDE808400120FFF7E9BE08B51A
:1017A400FFF7AEFEB0F57A7F03DDBDE80840FFF732
:1017B400EDBF08BD08B5FFF7A9FEB0F57A7F07DDD8
:1017C4000120FFF7B6FEBDE808400120FFF7D0BEB8
:1017D400FFF7E5FFFFF7C4FFBDE80840FFF7CBBF05
:1017E40038B50E4C0E4D22780AB92B7893B10020EF
:1017F400FFF7BEFE0020FFF79CFE4FF41670002199
:10180400FFF77CFDFFF788FF0023064A2B70237047
:10181400137038BDBDE83840FFF7CCBF5D0600202B
:101824005E0600205F06002008B5FFF7FDFDFFF708
:101834007DFFFFF7BDFEFFF7D3FFFFF758FEF8E784
:10184400931E222B10D80A2A10B506D000230C466A
:10185400194400F03DF8204610BD0028F6DA2D2387
:1018640040420B700123F2E700200870704700BF6C
:10187400FFF7E6BF20F0030110F00300C0F1000001
:1018840051F8043B00F1040C4FEACC0C6FF0000259
:101894001CBF22FA0CF213434FF0010C4CEA0C2C3F
:1018A4004CEA0C4CA3EB0C0222EA030212EACC121F
:1018B40004BF51F8043B0430F4D0C2F1000102EA41
:1018C4000102B2FA82F2C2F11F0200EBD2007047A9
:1018D400F0B58BB06F461546DFF870E004460E464F
:1018E400BEE80F000FC7BEE80F000FC79EE8030055
:1018F400AB1E47F8040B222B397022D8711E084600
:10190400002300E01346B4FBF5F205FB12440AAFD2
:101914003C4414F8287C144600F8017F5A1C002C1F
:10192400F0D1B454F2184BB101344D781778181B28
:10193400844201F8017F02F80159F5DB30460BB00F
:10194400F0BD002030700BB0F0BD00BF641900087A
:10195400FFF7BEBF494E49542E2E2E204F4B000098
:101964003031323334353637383961626364656611
:101974006768696A6B6C6D6E6F707172737475767B
:081984007778797A0000000079
:10198C000204060800000000010203040102030423
:10199C0006070809300000200000000000000000CD
:1019AC0000000000010203040607080900A24A0413
:040000050800010DE1
:00000001FF
